{
  "contractName": "FLibra",
  "abi": [
    {
      "constant": true,
      "inputs": [
        {
          "name": "",
          "type": "address"
        }
      ],
      "name": "Items",
      "outputs": [
        {
          "name": "itemName",
          "type": "string"
        },
        {
          "name": "price",
          "type": "uint256"
        },
        {
          "name": "owner",
          "type": "address"
        },
        {
          "name": "selling",
          "type": "bool"
        }
      ],
      "payable": false,
      "stateMutability": "view",
      "type": "function",
      "signature": "0xc02f6b1c"
    },
    {
      "constant": true,
      "inputs": [
        {
          "name": "",
          "type": "uint256"
        }
      ],
      "name": "allItems",
      "outputs": [
        {
          "name": "itemName",
          "type": "string"
        },
        {
          "name": "price",
          "type": "uint256"
        },
        {
          "name": "owner",
          "type": "address"
        },
        {
          "name": "selling",
          "type": "bool"
        }
      ],
      "payable": false,
      "stateMutability": "view",
      "type": "function",
      "signature": "0xff68fa6e"
    },
    {
      "inputs": [],
      "payable": false,
      "stateMutability": "nonpayable",
      "type": "constructor",
      "signature": "constructor"
    },
    {
      "anonymous": false,
      "inputs": [
        {
          "indexed": false,
          "name": "itemName",
          "type": "string"
        },
        {
          "indexed": false,
          "name": "price",
          "type": "uint256"
        },
        {
          "indexed": false,
          "name": "owner",
          "type": "address"
        },
        {
          "indexed": false,
          "name": "selling",
          "type": "bool"
        }
      ],
      "name": "PostItem",
      "type": "event",
      "signature": "0x6a5349b3e89c1fa4bddb494b08e1a5ea4b5d72fcf3095b4ca1b8bef4443aff02"
    },
    {
      "constant": false,
      "inputs": [
        {
          "name": "_itemName",
          "type": "string"
        },
        {
          "name": "_price",
          "type": "uint256"
        }
      ],
      "name": "setItem",
      "outputs": [],
      "payable": false,
      "stateMutability": "nonpayable",
      "type": "function",
      "signature": "0x389dc09b"
    },
    {
      "constant": true,
      "inputs": [],
      "name": "getItem",
      "outputs": [
        {
          "components": [
            {
              "name": "itemName",
              "type": "string"
            },
            {
              "name": "price",
              "type": "uint256"
            },
            {
              "name": "owner",
              "type": "address"
            },
            {
              "name": "selling",
              "type": "bool"
            }
          ],
          "name": "",
          "type": "tuple"
        }
      ],
      "payable": false,
      "stateMutability": "view",
      "type": "function",
      "signature": "0xc412eaba"
    },
    {
      "constant": true,
      "inputs": [
        {
          "name": "_id",
          "type": "uint256"
        }
      ],
      "name": "getAllItem",
      "outputs": [
        {
          "components": [
            {
              "name": "itemName",
              "type": "string"
            },
            {
              "name": "price",
              "type": "uint256"
            },
            {
              "name": "owner",
              "type": "address"
            },
            {
              "name": "selling",
              "type": "bool"
            }
          ],
          "name": "",
          "type": "tuple"
        }
      ],
      "payable": false,
      "stateMutability": "view",
      "type": "function",
      "signature": "0x36fcee3b"
    },
    {
      "constant": true,
      "inputs": [],
      "name": "getNumberOfItem",
      "outputs": [
        {
          "name": "",
          "type": "uint256"
        }
      ],
      "payable": false,
      "stateMutability": "view",
      "type": "function",
      "signature": "0x61978244"
    }
  ],
  "bytecode": "0x608060405234801561001057600080fd5b50610e4d806100206000396000f3fe608060405260043610610078576000357c0100000000000000000000000000000000000000000000000000000000900463ffffffff16806336fcee3b1461007d578063389dc09b146100ba57806361978244146100e3578063c02f6b1c1461010e578063c412eaba1461014e578063ff68fa6e14610179575b600080fd5b34801561008957600080fd5b506100a4600480360361009f9190810190610aae565b6101b9565b6040516100b19190610c7a565b60405180910390f35b3480156100c657600080fd5b506100e160048036036100dc9190810190610a5a565b61030e565b005b3480156100ef57600080fd5b506100f8610553565b6040516101059190610c9c565b60405180910390f35b34801561011a57600080fd5b5061013560048036036101309190810190610a31565b610560565b6040516101459493929190610c2e565b60405180910390f35b34801561015a57600080fd5b50610163610655565b6040516101709190610c7a565b60405180910390f35b34801561018557600080fd5b506101a0600480360361019b9190810190610aae565b6107c9565b6040516101b09493929190610c2e565b60405180910390f35b6101c16108cd565b6001828154811015156101d057fe5b906000526020600020906003020160806040519081016040529081600082018054600181600116156101000203166002900480601f0160208091040260200160405190810160405280929190818152602001828054600181600116156101000203166002900480156102835780601f1061025857610100808354040283529160200191610283565b820191906000526020600020905b81548152906001019060200180831161026657829003601f168201915b50505050508152602001600182015481526020016002820160009054906101000a900473ffffffffffffffffffffffffffffffffffffffff1673ffffffffffffffffffffffffffffffffffffffff1673ffffffffffffffffffffffffffffffffffffffff1681526020016002820160149054906101000a900460ff1615151515815250509050919050565b6080604051908101604052808381526020018281526020013373ffffffffffffffffffffffffffffffffffffffff168152602001600115158152506000803373ffffffffffffffffffffffffffffffffffffffff1673ffffffffffffffffffffffffffffffffffffffff16815260200190815260200160002060008201518160000190805190602001906103a392919061090e565b506020820151816001015560408201518160020160006101000a81548173ffffffffffffffffffffffffffffffffffffffff021916908373ffffffffffffffffffffffffffffffffffffffff16021790555060608201518160020160146101000a81548160ff02191690831515021790555090505060016080604051908101604052808481526020018381526020013373ffffffffffffffffffffffffffffffffffffffff1681526020016001151581525090806001815401808255809150509060018203906000526020600020906003020160009091929091909150600082015181600001908051906020019061049c92919061090e565b506020820151816001015560408201518160020160006101000a81548173ffffffffffffffffffffffffffffffffffffffff021916908373ffffffffffffffffffffffffffffffffffffffff16021790555060608201518160020160146101000a81548160ff0219169083151502179055505050507f6a5349b3e89c1fa4bddb494b08e1a5ea4b5d72fcf3095b4ca1b8bef4443aff0282823360016040516105479493929190610be2565b60405180910390a15050565b6000600180549050905090565b6000602052806000526040600020600091509050806000018054600181600116156101000203166002900480601f01602080910402602001604051908101604052809291908181526020018280546001816001161561010002031660029004801561060c5780601f106105e15761010080835404028352916020019161060c565b820191906000526020600020905b8154815290600101906020018083116105ef57829003601f168201915b5050505050908060010154908060020160009054906101000a900473ffffffffffffffffffffffffffffffffffffffff16908060020160149054906101000a900460ff16905084565b61065d6108cd565b6000803373ffffffffffffffffffffffffffffffffffffffff1673ffffffffffffffffffffffffffffffffffffffff16815260200190815260200160002060806040519081016040529081600082018054600181600116156101000203166002900480601f0160208091040260200160405190810160405280929190818152602001828054600181600116156101000203166002900480156107405780601f1061071557610100808354040283529160200191610740565b820191906000526020600020905b81548152906001019060200180831161072357829003601f168201915b50505050508152602001600182015481526020016002820160009054906101000a900473ffffffffffffffffffffffffffffffffffffffff1673ffffffffffffffffffffffffffffffffffffffff1673ffffffffffffffffffffffffffffffffffffffff1681526020016002820160149054906101000a900460ff161515151581525050905090565b6001818154811015156107d857fe5b9060005260206000209060030201600091509050806000018054600181600116156101000203166002900480601f0160208091040260200160405190810160405280929190818152602001828054600181600116156101000203166002900480156108845780601f1061085957610100808354040283529160200191610884565b820191906000526020600020905b81548152906001019060200180831161086757829003601f168201915b5050505050908060010154908060020160009054906101000a900473ffffffffffffffffffffffffffffffffffffffff16908060020160149054906101000a900460ff16905084565b6080604051908101604052806060815260200160008152602001600073ffffffffffffffffffffffffffffffffffffffff1681526020016000151581525090565b828054600181600116156101000203166002900490600052602060002090601f016020900481019282601f1061094f57805160ff191683800117855561097d565b8280016001018555821561097d579182015b8281111561097c578251825591602001919060010190610961565b5b50905061098a919061098e565b5090565b6109b091905b808211156109ac576000816000905550600101610994565b5090565b90565b60006109bf8235610d6e565b905092915050565b600082601f83011215156109da57600080fd5b81356109ed6109e882610ce4565b610cb7565b91508082526020830160208301858383011115610a0957600080fd5b610a14838284610dc0565b50505092915050565b6000610a298235610d80565b905092915050565b600060208284031215610a4357600080fd5b6000610a51848285016109b3565b91505092915050565b60008060408385031215610a6d57600080fd5b600083013567ffffffffffffffff811115610a8757600080fd5b610a93858286016109c7565b9250506020610aa485828601610a1d565b9150509250929050565b600060208284031215610ac057600080fd5b6000610ace84828501610a1d565b91505092915050565b610ae081610d8a565b82525050565b610aef81610d26565b82525050565b610afe81610d38565b82525050565b6000610b0f82610d1b565b808452610b23816020860160208601610dcf565b610b2c81610e02565b602085010191505092915050565b6000610b4582610d10565b808452610b59816020860160208601610dcf565b610b6281610e02565b602085010191505092915050565b60006080830160008301518482036000860152610b8d8282610b3a565b9150506020830151610ba26020860182610bd3565b506040830151610bb56040860182610ae6565b506060830151610bc86060860182610af5565b508091505092915050565b610bdc81610d64565b82525050565b60006080820190508181036000830152610bfc8187610b04565b9050610c0b6020830186610bd3565b610c186040830185610ad7565b610c256060830184610af5565b95945050505050565b60006080820190508181036000830152610c488187610b3a565b9050610c576020830186610bd3565b610c646040830185610ae6565b610c716060830184610af5565b95945050505050565b60006020820190508181036000830152610c948184610b70565b905092915050565b6000602082019050610cb16000830184610bd3565b92915050565b6000604051905081810181811067ffffffffffffffff82111715610cda57600080fd5b8060405250919050565b600067ffffffffffffffff821115610cfb57600080fd5b601f19601f8301169050602081019050919050565b600081519050919050565b600081519050919050565b6000610d3182610d44565b9050919050565b60008115159050919050565b600073ffffffffffffffffffffffffffffffffffffffff82169050919050565b6000819050919050565b6000610d7982610d44565b9050919050565b6000819050919050565b6000610d9582610d9c565b9050919050565b6000610da782610dae565b9050919050565b6000610db982610d44565b9050919050565b82818337600083830152505050565b60005b83811015610ded578082015181840152602081019050610dd2565b83811115610dfc576000848401525b50505050565b6000601f19601f830116905091905056fea265627a7a72305820945764fafaff0fd5ece6c3e406d3e9fb11eb61cb1bf8c71fa82f6f87d7f02f176c6578706572696d656e74616cf50037",
  "source": "pragma solidity ^0.5.0;\npragma experimental ABIEncoderV2;\n\ncontract FLibra {\n  \n  // structs\n  struct Item {\n    string itemName;\n    uint256 price;\n    address owner;\n    bool selling;\n  }\n\n  //events\n  event PostItem(string itemName, uint256 price, address owner, bool selling);\n\n  mapping(address => Item) public Items;\n  Item[] public allItems; \n\n\n  constructor() public {\n\n  }\n\n  function setItem(string memory _itemName, uint256 _price) public {\n    Items[msg.sender] = Item(_itemName, _price, msg.sender, true);\n    allItems.push(Item(_itemName, _price, msg.sender, true));\n    emit PostItem(_itemName, _price, msg.sender, true);\n  }\n\n  function getItem() public view returns (Item memory) {\n    return Items[msg.sender];\n  } \n\n  function getAllItem(uint256 _id) public view returns (Item memory) {\n    return allItems[_id];\n  } \n\n  function getNumberOfItem() public view returns (uint256) {\n    return allItems.length;\n  }\n}",
  "sourcePath": "/Users/yosuke.aramaki/Desktop/proto/flibra-v1/contracts/FLibra.sol",
  "compiler": {
    "name": "solc",
    "version": "0.5.0+commit.1d4f565a.Emscripten.clang"
  },
  "schemaVersion": "3.0.0",
  "updatedAt": "2019-08-10T04:58:08.981Z",
  "devdoc": {
    "methods": {}
  },
  "userdoc": {
    "methods": {}
  }
}